{
  "_format": "hh-sol-artifact-1",
  "contractName": "CardWave",
  "sourceName": "contracts/CardWave.sol",
  "abi": [
    {
      "anonymous": false,
      "inputs": [
        {
          "indexed": false,
          "internalType": "uint256",
          "name": "cardId",
          "type": "uint256"
        },
        {
          "indexed": false,
          "internalType": "address",
          "name": "owner",
          "type": "address"
        },
        {
          "indexed": false,
          "internalType": "string",
          "name": "name",
          "type": "string"
        },
        {
          "indexed": false,
          "internalType": "uint256",
          "name": "amount",
          "type": "uint256"
        }
      ],
      "name": "CardCreated",
      "type": "event"
    },
    {
      "anonymous": false,
      "inputs": [
        {
          "indexed": false,
          "internalType": "uint256",
          "name": "cardId",
          "type": "uint256"
        },
        {
          "indexed": false,
          "internalType": "address",
          "name": "redeemer",
          "type": "address"
        },
        {
          "indexed": false,
          "internalType": "uint256",
          "name": "amount",
          "type": "uint256"
        }
      ],
      "name": "CardRedeemed",
      "type": "event"
    },
    {
      "inputs": [
        {
          "internalType": "string",
          "name": "name",
          "type": "string"
        },
        {
          "internalType": "uint256",
          "name": "amount",
          "type": "uint256"
        }
      ],
      "name": "createCard",
      "outputs": [],
      "stateMutability": "nonpayable",
      "type": "function"
    },
    {
      "inputs": [],
      "name": "getAllCardIds",
      "outputs": [
        {
          "internalType": "uint256[]",
          "name": "",
          "type": "uint256[]"
        }
      ],
      "stateMutability": "view",
      "type": "function"
    },
    {
      "inputs": [],
      "name": "getAllCards",
      "outputs": [
        {
          "components": [
            {
              "internalType": "address payable",
              "name": "owner",
              "type": "address"
            },
            {
              "internalType": "string",
              "name": "name",
              "type": "string"
            },
            {
              "internalType": "uint256",
              "name": "amount",
              "type": "uint256"
            }
          ],
          "internalType": "struct CardWave.Card[]",
          "name": "",
          "type": "tuple[]"
        }
      ],
      "stateMutability": "view",
      "type": "function"
    },
    {
      "inputs": [
        {
          "internalType": "uint256",
          "name": "_index",
          "type": "uint256"
        }
      ],
      "name": "readGiftCards",
      "outputs": [
        {
          "internalType": "address payable",
          "name": "",
          "type": "address"
        },
        {
          "internalType": "string",
          "name": "",
          "type": "string"
        },
        {
          "internalType": "uint256",
          "name": "",
          "type": "uint256"
        }
      ],
      "stateMutability": "view",
      "type": "function"
    },
    {
      "inputs": [
        {
          "internalType": "uint256",
          "name": "cardId",
          "type": "uint256"
        },
        {
          "internalType": "uint256",
          "name": "amount",
          "type": "uint256"
        }
      ],
      "name": "redeemCard",
      "outputs": [],
      "stateMutability": "nonpayable",
      "type": "function"
    }
  ],
  "bytecode": "0x608060405234801561001057600080fd5b50610edc806100206000396000f3fe608060405234801561001057600080fd5b50600436106100575760003560e01c80630164c1db1461005c5780632ba5bbb81461007a5780636bdd44aa146100ac578063abf7d525146100c8578063cea13516146100e4575b600080fd5b610064610102565b6040516100719190610aa7565b60405180910390f35b610094600480360381019061008f91906107ab565b61015a565b6040516100a393929190610a47565b60405180910390f35b6100c660048036038101906100c1919061074f565b61025a565b005b6100e260048036038101906100dd91906107d8565b610357565b005b6100ec61041b565b6040516100f99190610a85565b60405180910390f35b6060600280548060200260200160405190810160405280929190818152602001828054801561015057602002820191906000526020600020905b81548152602001906001019080831161013c575b5050505050905090565b60006060600080600085815260200190815260200160002060000160009054906101000a900473ffffffffffffffffffffffffffffffffffffffff16600080868152602001908152602001600020600101600080878152602001908152602001600020600201548180546101cd90610cd9565b80601f01602080910402602001604051908101604052809291908181526020018280546101f990610cd9565b80156102465780601f1061021b57610100808354040283529160200191610246565b820191906000526020600020905b81548152906001019060200180831161022957829003601f168201915b505050505091509250925092509193909250565b60405180606001604052803373ffffffffffffffffffffffffffffffffffffffff16815260200183815260200182815250600080600154815260200190815260200160002060008201518160000160006101000a81548173ffffffffffffffffffffffffffffffffffffffff021916908373ffffffffffffffffffffffffffffffffffffffff16021790555060208201518160010190805190602001906103029291906105f0565b5060408201518160020155905050600260015490806001815401808255809150506001900390600052602060002001600090919091909150556001600081548092919061034e90610d3c565b91905055505050565b60008060008481526020019081526020016000209050600082118015610381575080600201548211155b6103c0576040517f08c379a00000000000000000000000000000000000000000000000000000000081526004016103b790610ac9565b60405180910390fd5b818160020160008282546103d49190610c15565b925050819055507f315840b748878bbd1ee48f9004e81c1c2623615c92faf8e819f96e4101acd8d683338460405161040e93929190610ae9565b60405180910390a1505050565b6060600060028054905067ffffffffffffffff81111561043e5761043d610e12565b5b60405190808252806020026020018201604052801561047757816020015b610464610676565b81526020019060019003908161045c5790505b50905060005b6002805490508110156105e857600080600283815481106104a1576104a0610de3565b5b906000526020600020015481526020019081526020016000206040518060600160405290816000820160009054906101000a900473ffffffffffffffffffffffffffffffffffffffff1673ffffffffffffffffffffffffffffffffffffffff1673ffffffffffffffffffffffffffffffffffffffff16815260200160018201805461052b90610cd9565b80601f016020809104026020016040519081016040528092919081815260200182805461055790610cd9565b80156105a45780601f10610579576101008083540402835291602001916105a4565b820191906000526020600020905b81548152906001019060200180831161058757829003601f168201915b505050505081526020016002820154815250508282815181106105ca576105c9610de3565b5b602002602001018190525080806105e090610d3c565b91505061047d565b508091505090565b8280546105fc90610cd9565b90600052602060002090601f01602090048101928261061e5760008555610665565b82601f1061063757805160ff1916838001178555610665565b82800160010185558215610665579182015b82811115610664578251825591602001919060010190610649565b5b50905061067291906106ad565b5090565b6040518060600160405280600073ffffffffffffffffffffffffffffffffffffffff16815260200160608152602001600081525090565b5b808211156106c65760008160009055506001016106ae565b5090565b60006106dd6106d884610b45565b610b20565b9050828152602081018484840111156106f9576106f8610e46565b5b610704848285610c97565b509392505050565b600082601f83011261072157610720610e41565b5b81356107318482602086016106ca565b91505092915050565b60008135905061074981610e8f565b92915050565b6000806040838503121561076657610765610e50565b5b600083013567ffffffffffffffff81111561078457610783610e4b565b5b6107908582860161070c565b92505060206107a18582860161073a565b9150509250929050565b6000602082840312156107c1576107c0610e50565b5b60006107cf8482850161073a565b91505092915050565b600080604083850312156107ef576107ee610e50565b5b60006107fd8582860161073a565b925050602061080e8582860161073a565b9150509250929050565b600061082483836109d9565b905092915050565b60006108388383610a29565b60208301905092915050565b61084d81610c5b565b82525050565b61085c81610c5b565b82525050565b61086b81610c49565b82525050565b600061087c82610b96565b6108868185610bd1565b93508360208202850161089885610b76565b8060005b858110156108d457848403895281516108b58582610818565b94506108c083610bb7565b925060208a0199505060018101905061089c565b50829750879550505050505092915050565b60006108f182610ba1565b6108fb8185610be2565b935061090683610b86565b8060005b8381101561093757815161091e888261082c565b975061092983610bc4565b92505060018101905061090a565b5085935050505092915050565b600061094f82610bac565b6109598185610bf3565b9350610969818560208601610ca6565b61097281610e55565b840191505092915050565b600061098882610bac565b6109928185610c04565b93506109a2818560208601610ca6565b6109ab81610e55565b840191505092915050565b60006109c3601583610c04565b91506109ce82610e66565b602082019050919050565b60006060830160008301516109f16000860182610844565b5060208301518482036020860152610a098282610944565b9150506040830151610a1e6040860182610a29565b508091505092915050565b610a3281610c8d565b82525050565b610a4181610c8d565b82525050565b6000606082019050610a5c6000830186610853565b8181036020830152610a6e818561097d565b9050610a7d6040830184610a38565b949350505050565b60006020820190508181036000830152610a9f8184610871565b905092915050565b60006020820190508181036000830152610ac181846108e6565b905092915050565b60006020820190508181036000830152610ae2816109b6565b9050919050565b6000606082019050610afe6000830186610a38565b610b0b6020830185610862565b610b186040830184610a38565b949350505050565b6000610b2a610b3b565b9050610b368282610d0b565b919050565b6000604051905090565b600067ffffffffffffffff821115610b6057610b5f610e12565b5b610b6982610e55565b9050602081019050919050565b6000819050602082019050919050565b6000819050602082019050919050565b600081519050919050565b600081519050919050565b600081519050919050565b6000602082019050919050565b6000602082019050919050565b600082825260208201905092915050565b600082825260208201905092915050565b600082825260208201905092915050565b600082825260208201905092915050565b6000610c2082610c8d565b9150610c2b83610c8d565b925082821015610c3e57610c3d610d85565b5b828203905092915050565b6000610c5482610c6d565b9050919050565b6000610c6682610c6d565b9050919050565b600073ffffffffffffffffffffffffffffffffffffffff82169050919050565b6000819050919050565b82818337600083830152505050565b60005b83811015610cc4578082015181840152602081019050610ca9565b83811115610cd3576000848401525b50505050565b60006002820490506001821680610cf157607f821691505b60208210811415610d0557610d04610db4565b5b50919050565b610d1482610e55565b810181811067ffffffffffffffff82111715610d3357610d32610e12565b5b80604052505050565b6000610d4782610c8d565b91507fffffffffffffffffffffffffffffffffffffffffffffffffffffffffffffffff821415610d7a57610d79610d85565b5b600182019050919050565b7f4e487b7100000000000000000000000000000000000000000000000000000000600052601160045260246000fd5b7f4e487b7100000000000000000000000000000000000000000000000000000000600052602260045260246000fd5b7f4e487b7100000000000000000000000000000000000000000000000000000000600052603260045260246000fd5b7f4e487b7100000000000000000000000000000000000000000000000000000000600052604160045260246000fd5b600080fd5b600080fd5b600080fd5b600080fd5b6000601f19601f8301169050919050565b7f496e76616c69642072656465656d20616d6f756e740000000000000000000000600082015250565b610e9881610c8d565b8114610ea357600080fd5b5056fea26469706673582212202f565b18bc87826a75df97d95e26349544a326605a23fdafdd46b87eae5cdf8264736f6c63430008050033",
  "linkReferences": {},
  "deployedLinkReferences": {}
}